{
  "contractName": "Adoption",
  "abi": [
    {
      "constant": true,
      "inputs": [
        {
          "name": "",
          "type": "uint256"
        }
      ],
      "name": "adopters",
      "outputs": [
        {
          "name": "",
          "type": "address"
        }
      ],
      "payable": false,
      "stateMutability": "view",
      "type": "function"
    },
    {
      "anonymous": false,
      "inputs": [
        {
          "indexed": true,
          "name": "petId",
          "type": "uint256"
        },
        {
          "indexed": false,
          "name": "adopter",
          "type": "address"
        },
        {
          "indexed": false,
          "name": "timestamp",
          "type": "uint256"
        }
      ],
      "name": "PetAdopted",
      "type": "event"
    },
    {
      "constant": false,
      "inputs": [
        {
          "name": "petId",
          "type": "uint256"
        }
      ],
      "name": "adopt",
      "outputs": [
        {
          "name": "",
          "type": "uint256"
        }
      ],
      "payable": false,
      "stateMutability": "nonpayable",
      "type": "function"
    }
  ],
  "bytecode": "0x608060405234801561001057600080fd5b506102c5806100206000396000f3fe60806040526004361061004c576000357c0100000000000000000000000000000000000000000000000000000000900463ffffffff16806343ae80d3146100515780638588b2c5146100cc575b600080fd5b34801561005d57600080fd5b5061008a6004803603602081101561007457600080fd5b810190808035906020019092919050505061011b565b604051808273ffffffffffffffffffffffffffffffffffffffff1673ffffffffffffffffffffffffffffffffffffffff16815260200191505060405180910390f35b3480156100d857600080fd5b50610105600480360360208110156100ef57600080fd5b8101908080359060200190929190505050610150565b6040518082815260200191505060405180910390f35b60008160108110151561012a57fe5b016000915054906101000a900473ffffffffffffffffffffffffffffffffffffffff1681565b60008082101580156101625750601082105b15156101d6576040517f08c379a000000000000000000000000000000000000000000000000000000000815260040180806020018281038252600e8152602001807f496e76616c69642070657420494400000000000000000000000000000000000081525060200191505060405180910390fd5b336000836010811015156101e657fe5b0160006101000a81548173ffffffffffffffffffffffffffffffffffffffff021916908373ffffffffffffffffffffffffffffffffffffffff160217905550817f6bbc04cd9f7bf9831cd5eba47dc9f5f589da3dfe1324b72461514271655ceb993342604051808373ffffffffffffffffffffffffffffffffffffffff1673ffffffffffffffffffffffffffffffffffffffff1681526020018281526020019250505060405180910390a281905091905056fea165627a7a723058207d8dec69dc52108047c84bfe8b74cce8e7dd8d930ad14e4b4fc8fac8043e1bfd0029",
  "source": "// SPDX-License-Identifier: MIT\r\npragma solidity >=0.4.22 <0.9.0;\r\n\r\ncontract Adoption {\r\n    address[16] public adopters;\r\n\r\n    // Include timestamp in the event\r\n    event PetAdopted(uint indexed petId, address adopter, uint timestamp);\r\n\r\n    function adopt(uint petId) public returns (uint) {\r\n        require(petId >= 0 && petId < 16, \"Invalid pet ID\");\r\n\r\n        adopters[petId] = msg.sender;\r\n\r\n        emit PetAdopted(petId, msg.sender, block.timestamp);\r\n\r\n        return petId;\r\n    }\r\n\r\n}\r\n",
  "sourcePath": "D:\\Blockchain\\e-commerce-dapp\\contracts\\Adoption.sol",
  "compiler": {
    "name": "solc",
    "version": "0.5.0+commit.1d4f565a.Emscripten.clang"
  },
  "schemaVersion": "3.4.16",
  "updatedAt": "2025-04-19T03:52:03.560Z",
  "networkType": "ethereum",
  "devdoc": {
    "methods": {}
  },
  "userdoc": {
    "methods": {}
  }
}